{
  "contractName": "LibraryDemo",
  "abi": [
    {
      "constant": true,
      "inputs": [
        {
          "name": "str",
          "type": "string"
        }
      ],
      "name": "utfStringLength",
      "outputs": [
        {
          "name": "length",
          "type": "uint256"
        }
      ],
      "payable": false,
      "stateMutability": "pure",
      "type": "function"
    }
  ],
  "bytecode": "0x610495610030600b82828239805160001a6073146000811461002057610022565bfe5b5030600052607381538281f3007300000000000000000000000000000000000000003014608060405260043610610058576000357c0100000000000000000000000000000000000000000000000000000000900463ffffffff1680630326c06b1461005d575b600080fd5b6100b7600480360381019080803590602001908201803590602001908080601f01602080910402602001604051908101604052809392919081815260200183838082843782019150505050505091929192905050506100cd565b6040518082815260200191505060405180910390f35b6000806060600091508390505b80518210156104625760007f0100000000000000000000000000000000000000000000000000000000000000026007828481518110151561011757fe5b9060200101517f010000000000000000000000000000000000000000000000000000000000000090047f0100000000000000000000000000000000000000000000000000000000000000027effffffffffffffffffffffffffffffffffffffffffffffffffffffffffffff19169060020a90047effffffffffffffffffffffffffffffffffffffffffffffffffffffffffffff191614156101bd57600182019150610455565b60067f010000000000000000000000000000000000000000000000000000000000000002600582848151811015156101f157fe5b9060200101517f010000000000000000000000000000000000000000000000000000000000000090047f0100000000000000000000000000000000000000000000000000000000000000027effffffffffffffffffffffffffffffffffffffffffffffffffffffffffffff19169060020a90047effffffffffffffffffffffffffffffffffffffffffffffffffffffffffffff1916141561029757600282019150610454565b600e7f010000000000000000000000000000000000000000000000000000000000000002600482848151811015156102cb57fe5b9060200101517f010000000000000000000000000000000000000000000000000000000000000090047f0100000000000000000000000000000000000000000000000000000000000000027effffffffffffffffffffffffffffffffffffffffffffffffffffffffffffff19169060020a90047effffffffffffffffffffffffffffffffffffffffffffffffffffffffffffff1916141561037157600382019150610453565b601e7f010000000000000000000000000000000000000000000000000000000000000002600382848151811015156103a557fe5b9060200101517f010000000000000000000000000000000000000000000000000000000000000090047f0100000000000000000000000000000000000000000000000000000000000000027effffffffffffffffffffffffffffffffffffffffffffffffffffffffffffff19169060020a90047effffffffffffffffffffffffffffffffffffffffffffffffffffffffffffff1916141561044b57600482019150610452565b6001820191505b5b5b5b82806001019350506100da565b50509190505600a165627a7a7230582027212189ae5ceb85d93f011e3ba702b1557700d32507ad910216930f18ac30800029",
  "source": "pragma solidity ^0.4.22;\n\n/*\n * @title LibraryDemo & string library for Solidity contracts.\n * This is a extended library where all the string utility finctions are added and can be inviked in the project.\n * @dev Functionality in this library is to count the lenght of the string\n */\nlibrary LibraryDemo {\n\n    /** @dev To find the length of a string passed. It will work for UTF-8 chars as well\n    *   @param str input string\n    *   @return length length of the string.\n    */\n    function utfStringLength(string str) \n    public \n    pure\n    returns (uint length)\n    {\n        uint i = 0;\n        bytes memory string_rep = bytes(str);\n\n        while (i<string_rep.length)\n        {\n            if (string_rep[i]>>7==0)\n                i += 1;\n            else if (string_rep[i]>>5==0x6)\n                i += 2;\n            else if (string_rep[i]>>4==0xE)\n                i += 3;\n            else if (string_rep[i]>>3==0x1E)\n                i += 4;\n            else\n                //For safety\n                i += 1;\n\n            length++;\n        }\n    }\n}",
  "sourcePath": "/home/demmojo/Projects/prove-it/contracts/LibraryDemo.sol",
  "compiler": {
    "name": "solc",
    "version": "0.4.24+commit.e67f0147.Emscripten.clang"
  },
  "schemaVersion": "2.0.1",
  "updatedAt": "2018-12-28T08:10:51.032Z"
}