{
  "contractName": "Prove",
  "abi": [
    {
      "constant": true,
      "inputs": [],
      "name": "storageDatabase",
      "outputs": [
        {
          "name": "",
          "type": "address"
        }
      ],
      "payable": false,
      "stateMutability": "view",
      "type": "function"
    },
    {
      "constant": false,
      "inputs": [],
      "name": "kill",
      "outputs": [],
      "payable": false,
      "stateMutability": "nonpayable",
      "type": "function"
    },
    {
      "constant": true,
      "inputs": [],
      "name": "stopped",
      "outputs": [
        {
          "name": "",
          "type": "bool"
        }
      ],
      "payable": false,
      "stateMutability": "view",
      "type": "function"
    },
    {
      "constant": true,
      "inputs": [],
      "name": "owner",
      "outputs": [
        {
          "name": "",
          "type": "address"
        }
      ],
      "payable": false,
      "stateMutability": "view",
      "type": "function"
    },
    {
      "constant": false,
      "inputs": [
        {
          "name": "_newOwner",
          "type": "address"
        }
      ],
      "name": "changeOwner",
      "outputs": [],
      "payable": false,
      "stateMutability": "nonpayable",
      "type": "function"
    },
    {
      "inputs": [
        {
          "name": "_storageDatabase",
          "type": "address"
        }
      ],
      "payable": false,
      "stateMutability": "nonpayable",
      "type": "constructor"
    },
    {
      "payable": true,
      "stateMutability": "payable",
      "type": "fallback"
    },
    {
      "anonymous": false,
      "inputs": [
        {
          "indexed": false,
          "name": "_senderaddr",
          "type": "address"
        },
        {
          "indexed": false,
          "name": "_value",
          "type": "uint256"
        }
      ],
      "name": "LogFallback",
      "type": "event"
    },
    {
      "anonymous": false,
      "inputs": [
        {
          "indexed": false,
          "name": "_addr",
          "type": "address"
        },
        {
          "indexed": false,
          "name": "_userName",
          "type": "bytes32"
        },
        {
          "indexed": false,
          "name": "_dochash",
          "type": "bytes32"
        },
        {
          "indexed": false,
          "name": "_docTimestamp",
          "type": "uint256"
        },
        {
          "indexed": false,
          "name": "_ipfsHash",
          "type": "bytes"
        },
        {
          "indexed": false,
          "name": "_notes",
          "type": "string"
        }
      ],
      "name": "LogUploadFile",
      "type": "event"
    },
    {
      "constant": false,
      "inputs": [
        {
          "name": "_storageDatabase",
          "type": "address"
        }
      ],
      "name": "setstorageDatabase",
      "outputs": [
        {
          "name": "",
          "type": "bool"
        }
      ],
      "payable": false,
      "stateMutability": "nonpayable",
      "type": "function"
    },
    {
      "constant": false,
      "inputs": [
        {
          "name": "_docHash",
          "type": "bytes32"
        },
        {
          "name": "_userName",
          "type": "bytes32"
        },
        {
          "name": "_ipfsHash",
          "type": "bytes"
        },
        {
          "name": "_docTags",
          "type": "bytes"
        }
      ],
      "name": "uploadFile",
      "outputs": [
        {
          "name": "",
          "type": "bool"
        }
      ],
      "payable": false,
      "stateMutability": "nonpayable",
      "type": "function"
    },
    {
      "constant": true,
      "inputs": [
        {
          "name": "_docHash",
          "type": "bytes32"
        }
      ],
      "name": "retrieveFile",
      "outputs": [
        {
          "name": "",
          "type": "bytes32"
        },
        {
          "name": "",
          "type": "bytes32"
        },
        {
          "name": "",
          "type": "uint256"
        },
        {
          "name": "",
          "type": "bytes"
        },
        {
          "name": "",
          "type": "bytes"
        }
      ],
      "payable": false,
      "stateMutability": "view",
      "type": "function"
    },
    {
      "constant": true,
      "inputs": [],
      "name": "retrieveAllFiles",
      "outputs": [
        {
          "name": "",
          "type": "bytes32[]"
        }
      ],
      "payable": false,
      "stateMutability": "view",
      "type": "function"
    },
    {
      "constant": true,
      "inputs": [],
      "name": "checkBalance",
      "outputs": [
        {
          "name": "",
          "type": "uint256"
        }
      ],
      "payable": false,
      "stateMutability": "view",
      "type": "function"
    },
    {
      "constant": false,
      "inputs": [],
      "name": "withdrawFunds",
      "outputs": [
        {
          "name": "",
          "type": "bool"
        }
      ],
      "payable": false,
      "stateMutability": "nonpayable",
      "type": "function"
    }
  ],
  "bytecode": "0x60806040526000600160146101000a81548160ff02191690831515021790555034801561002b57600080fd5b5060405160208061182a83398101806040528101908080519060200190929190505050336000806101000a81548173ffffffffffffffffffffffffffffffffffffffff021916908373ffffffffffffffffffffffffffffffffffffffff160217905550336000806101000a81548173ffffffffffffffffffffffffffffffffffffffff021916908373ffffffffffffffffffffffffffffffffffffffff16021790555080600160006101000a81548173ffffffffffffffffffffffffffffffffffffffff021916908373ffffffffffffffffffffffffffffffffffffffff1602179055505061170b8061011f6000396000f3006080604052600436106100af576000357c0100000000000000000000000000000000000000000000000000000000900463ffffffff16806304399bbf146101bd57806313cf9f841461021457806324600fc3146102f757806341c0e1b5146103265780634aba18971461033d57806375f12b21146103a957806387ebbf67146103d85780638da5cb5b14610513578063a6f9dae11461056a578063c71daccb146105ad578063da46d05a146105d8575b600080369050141515610150576040517f08c379a00000000000000000000000000000000000000000000000000000000081526004018080602001828103825260228152602001807f4c656e677468206f6620746865206d657373616765206973206e6f74207a657281526020017f6f2e00000000000000000000000000000000000000000000000000000000000081525060400191505060405180910390fd5b7fc04e16d4878a87a7d627a5fb8c387ac4a2169e45f86d1935cc739c196c8a57153334604051808373ffffffffffffffffffffffffffffffffffffffff1673ffffffffffffffffffffffffffffffffffffffff1681526020018281526020019250505060405180910390a1005b3480156101c957600080fd5b506101d2610633565b604051808273ffffffffffffffffffffffffffffffffffffffff1673ffffffffffffffffffffffffffffffffffffffff16815260200191505060405180910390f35b34801561022057600080fd5b506102dd60048036038101908080356000191690602001909291908035600019169060200190929190803590602001908201803590602001908080601f0160208091040260200160405190810160405280939291908181526020018383808284378201915050505050509192919290803590602001908201803590602001908080601f0160208091040260200160405190810160405280939291908181526020018383808284378201915050505050509192919290505050610659565b604051808215151515815260200191505060405180910390f35b34801561030357600080fd5b5061030c610c1a565b604051808215151515815260200191505060405180910390f35b34801561033257600080fd5b5061033b610d70565b005b34801561034957600080fd5b50610352610f7e565b6040518080602001828103825283818151815260200191508051906020019060200280838360005b8381101561039557808201518184015260208101905061037a565b505050509050019250505060405180910390f35b3480156103b557600080fd5b506103be6110df565b604051808215151515815260200191505060405180910390f35b3480156103e457600080fd5b5061040760048036038101908080356000191690602001909291905050506110f2565b60405180866000191660001916815260200185600019166000191681526020018481526020018060200180602001838103835285818151815260200191508051906020019080838360005b8381101561046d578082015181840152602081019050610452565b50505050905090810190601f16801561049a5780820380516001836020036101000a031916815260200191505b50838103825284818151815260200191508051906020019080838360005b838110156104d35780820151818401526020810190506104b8565b50505050905090810190601f1680156105005780820380516001836020036101000a031916815260200191505b5097505050505050505060405180910390f35b34801561051f57600080fd5b506105286113a9565b604051808273ffffffffffffffffffffffffffffffffffffffff1673ffffffffffffffffffffffffffffffffffffffff16815260200191505060405180910390f35b34801561057657600080fd5b506105ab600480360381019080803573ffffffffffffffffffffffffffffffffffffffff1690602001909291905050506113ce565b005b3480156105b957600080fd5b506105c261158a565b6040518082815260200191505060405180910390f35b3480156105e457600080fd5b50610619600480360381019080803573ffffffffffffffffffffffffffffffffffffffff1690602001909291905050506115a9565b604051808215151515815260200191505060405180910390f35b600160009054906101000a900473ffffffffffffffffffffffffffffffffffffffff1681565b600080600080600102876000191614151515610703576040517f08c379a00000000000000000000000000000000000000000000000000000000081526004018080602001828103825260258152602001807f506c6561736520656e746572206120636f727265637420646f63756d656e742081526020017f686173682e00000000000000000000000000000000000000000000000000000081525060400191505060405180910390fd5b60208060ff16111515156107a5576040517f08c379a00000000000000000000000000000000000000000000000000000000081526004018080602001828103825260298152602001807f54686520757365724e616d652073686f756c64206265206c657373207468616e81526020017f203332206279746573000000000000000000000000000000000000000000000081525060400191505060405180910390fd5b6040855111151515610845576040517f08c379a00000000000000000000000000000000000000000000000000000000081526004018080602001828103825260298152602001807f5468652069706673486173682073686f756c64206265206c657373207468616e81526020017f203634206279746573000000000000000000000000000000000000000000000081525060400191505060405180910390fd5b60208451111515156108e5576040517f08c379a00000000000000000000000000000000000000000000000000000000081526004018080602001828103825260288152602001807f54686520646f63546167732073686f756c64206265206c657373207468616e2081526020017f333220627974657300000000000000000000000000000000000000000000000081525060400191505060405180910390fd5b600160009054906101000a900473ffffffffffffffffffffffffffffffffffffffff1690508073ffffffffffffffffffffffffffffffffffffffff16632197dc2e33898989896040518663ffffffff167c0100000000000000000000000000000000000000000000000000000000028152600401808673ffffffffffffffffffffffffffffffffffffffff1673ffffffffffffffffffffffffffffffffffffffff168152602001856000191660001916815260200184600019166000191681526020018060200180602001838103835285818151815260200191508051906020019080838360005b838110156109e85780820151818401526020810190506109cd565b50505050905090810190601f168015610a155780820380516001836020036101000a031916815260200191505b50838103825284818151815260200191508051906020019080838360005b83811015610a4e578082015181840152602081019050610a33565b50505050905090810190601f168015610a7b5780820380516001836020036101000a031916815260200191505b50975050505050505050602060405180830381600087803b158015610a9f57600080fd5b505af1158015610ab3573d6000803e3d6000fd5b505050506040513d6020811015610ac957600080fd5b810190808051906020019092919050505091507f24f0a79b9cc4eb5e706c1074e6ac70956430d377c0077f7f7b02921c2318c6973387894289604051808673ffffffffffffffffffffffffffffffffffffffff1673ffffffffffffffffffffffffffffffffffffffff168152602001856000191660001916815260200184600019166000191681526020018381526020018060200180602001838103835284818151815260200191508051906020019080838360005b83811015610b9a578082015181840152602081019050610b7f565b50505050905090810190601f168015610bc75780820380516001836020036101000a031916815260200191505b50838103825260068152602001807f75706c6f6164000000000000000000000000000000000000000000000000000081525060200197505050505050505060405180910390a18192505050949350505050565b6000806000809054906101000a900473ffffffffffffffffffffffffffffffffffffffff1673ffffffffffffffffffffffffffffffffffffffff163373ffffffffffffffffffffffffffffffffffffffff16141515610d07576040517f08c379a00000000000000000000000000000000000000000000000000000000081526004018080602001828103825260258152602001807f596f7520617265206e6f7420746865206f776e6572206f662074686520636f6e81526020017f747261637400000000000000000000000000000000000000000000000000000081525060400191505060405180910390fd5b3073ffffffffffffffffffffffffffffffffffffffff163190503373ffffffffffffffffffffffffffffffffffffffff166108fc829081150290604051600060405180830381858888f19350505050158015610d67573d6000803e3d6000fd5b50600191505090565b6000809054906101000a900473ffffffffffffffffffffffffffffffffffffffff1673ffffffffffffffffffffffffffffffffffffffff163373ffffffffffffffffffffffffffffffffffffffff16141515610e5a576040517f08c379a00000000000000000000000000000000000000000000000000000000081526004018080602001828103825260258152602001807f596f7520617265206e6f7420746865206f776e6572206f662074686520636f6e81526020017f747261637400000000000000000000000000000000000000000000000000000081525060400191505060405180910390fd5b6000809054906101000a900473ffffffffffffffffffffffffffffffffffffffff1673ffffffffffffffffffffffffffffffffffffffff163373ffffffffffffffffffffffffffffffffffffffff16141515610f44576040517f08c379a00000000000000000000000000000000000000000000000000000000081526004018080602001828103825260258152602001807f596f7520617265206e6f7420746865206f776e6572206f662074686520636f6e81526020017f747261637400000000000000000000000000000000000000000000000000000081525060400191505060405180910390fd5b6000809054906101000a900473ffffffffffffffffffffffffffffffffffffffff1673ffffffffffffffffffffffffffffffffffffffff16ff5b606060006060600160009054906101000a900473ffffffffffffffffffffffffffffffffffffffff1691508173ffffffffffffffffffffffffffffffffffffffff1663f3e31a10336040518263ffffffff167c0100000000000000000000000000000000000000000000000000000000028152600401808273ffffffffffffffffffffffffffffffffffffffff1673ffffffffffffffffffffffffffffffffffffffff168152602001915050600060405180830381600087803b15801561104457600080fd5b505af1158015611058573d6000803e3d6000fd5b505050506040513d6000823e3d601f19601f82011682018060405250602081101561108257600080fd5b81019080805164010000000081111561109a57600080fd5b828101905060208101848111156110b057600080fd5b81518560208202830111640100000000821117156110cd57600080fd5b50509291905050509050809250505090565b600160149054906101000a900460ff1681565b600080600060608060008060008060608060006001028c60001916141515156111a9576040517f08c379a00000000000000000000000000000000000000000000000000000000081526004018080602001828103825260258152602001807f506c6561736520656e746572206120636f727265637420646f63756d656e742081526020017f686173682e00000000000000000000000000000000000000000000000000000081525060400191505060405180910390fd5b600160009054906101000a900473ffffffffffffffffffffffffffffffffffffffff1695508573ffffffffffffffffffffffffffffffffffffffff166305950b53338e6040518363ffffffff167c0100000000000000000000000000000000000000000000000000000000028152600401808373ffffffffffffffffffffffffffffffffffffffff1673ffffffffffffffffffffffffffffffffffffffff168152602001826000191660001916815260200192505050600060405180830381600087803b15801561127957600080fd5b505af115801561128d573d6000803e3d6000fd5b505050506040513d6000823e3d601f19601f8201168201806040525060a08110156112b757600080fd5b8101908080519060200190929190805190602001909291908051906020019092919080516401000000008111156112ed57600080fd5b8281019050602081018481111561130357600080fd5b815185600182028301116401000000008211171561132057600080fd5b5050929190602001805164010000000081111561133c57600080fd5b8281019050602081018481111561135257600080fd5b815185600182028301116401000000008211171561136f57600080fd5b5050929190505050809550819650829750839850849950505050505084848484849a509a509a509a509a5050505050505091939590929450565b6000809054906101000a900473ffffffffffffffffffffffffffffffffffffffff1681565b6000809054906101000a900473ffffffffffffffffffffffffffffffffffffffff1673ffffffffffffffffffffffffffffffffffffffff163373ffffffffffffffffffffffffffffffffffffffff161415156114b8576040517f08c379a00000000000000000000000000000000000000000000000000000000081526004018080602001828103825260258152602001807f596f7520617265206e6f7420746865206f776e6572206f662074686520636f6e81526020017f747261637400000000000000000000000000000000000000000000000000000081525060400191505060405180910390fd5b60008173ffffffffffffffffffffffffffffffffffffffff1614151515611547576040517f08c379a00000000000000000000000000000000000000000000000000000000081526004018080602001828103825260158152602001807f416464726573732063616e6e6f7420626520307830000000000000000000000081525060200191505060405180910390fd5b806000806101000a81548173ffffffffffffffffffffffffffffffffffffffff021916908373ffffffffffffffffffffffffffffffffffffffff16021790555050565b60003073ffffffffffffffffffffffffffffffffffffffff1631905090565b60008060009054906101000a900473ffffffffffffffffffffffffffffffffffffffff1673ffffffffffffffffffffffffffffffffffffffff163373ffffffffffffffffffffffffffffffffffffffff16141515611695576040517f08c379a00000000000000000000000000000000000000000000000000000000081526004018080602001828103825260258152602001807f596f7520617265206e6f7420746865206f776e6572206f662074686520636f6e81526020017f747261637400000000000000000000000000000000000000000000000000000081525060400191505060405180910390fd5b81600160006101000a81548173ffffffffffffffffffffffffffffffffffffffff021916908373ffffffffffffffffffffffffffffffffffffffff160217905550600190509190505600a165627a7a72305820634e2bae02d154fdd9078778c7cc187e10bd70833c0573b074095852febff9530029",
  "source": "pragma solidity ^0.4.24;\n\nimport \"./ProveDatabase.sol\";\nimport \"./Mortal.sol\";\n\n/** @title Proving related tasks. */\ncontract Prove is Mortal{\n    \n    address public storageDatabase;\n    bool public stopped = false;\n\n    // document ipfs hash and document hash and timestamp \n    struct File {\n        string ipfsHash;\n        bytes32 docHash;\n        uint documentTimeStamp;\n    }\n\n    // Constructor started with the storage contract address. \n    constructor(address _storageDatabase) public {\n        owner = msg.sender;\n        storageDatabase = _storageDatabase;\n    }\n\n    // Change the address of the storage contract by owner.\n    function setstorageDatabase(address _storageDatabase) public onlyOwner returns(bool){\n        storageDatabase = _storageDatabase;\n        return true;\n    }\n\n    //Events for logging\n    event LogFallback(address _senderaddr,uint _value);\n    event LogUploadFile(address _addr, bytes32 _userName, bytes32 _dochash, uint _docTimestamp, bytes _ipfsHash, string _notes);\n\n    /** @dev Uploads the document and stores data within the storage contract.  \n        * @param _docHash hash of the document.\n        * @param _userName username of the document owner.\n        * @param _ipfsHash document hash returned by IPFS.\n        * @param _docTags document tags.\n        * @return status true/false.\n        */\n    function uploadFile(bytes32 _docHash, bytes32 _userName, bytes memory _ipfsHash,bytes memory _docTags) public returns(bool) {\n        \n        require(_docHash != 0x0,\"Please enter a correct document hash.\");\n        require(_userName.length <= 32,\"The userName should be less than 32 bytes\");\n        require(_ipfsHash.length <= 64,\"The ipfsHash should be less than 64 bytes\");\n        require(_docTags.length <= 32,\"The docTags should be less than 32 bytes\");\n        \n        bool status;\n        ProveDatabase proveDatabase = ProveDatabase(storageDatabase);\n\n        status = proveDatabase.addFile(msg.sender,_docHash,_userName,_ipfsHash,_docTags);\n        //Log upload of the document\n        emit LogUploadFile(msg.sender, _userName,_docHash, block.timestamp,_ipfsHash,\"upload\");\n\n        return status;\n    }\n    \n    /** @dev Retrieve document details.\n        * @param _docHash hash of the document.\n        * @return docHash hash of the document.\n        * @return userName name of the document owner.\n        * @return documentTimeStamp registration timestamp of document.\n        * @return ipfsHash IPFS document hash.\n        * @return docTags document description tags.\n        */\n    function retrieveFile(bytes32 _docHash) public view returns(bytes32,bytes32,uint,bytes memory,bytes memory) {\n        \n        require(_docHash != 0x0, \"Please enter a correct document hash.\");\n        ProveDatabase proveDatabase = ProveDatabase(storageDatabase);\n        bytes32 docHash;\n        bytes32 userName;\n        uint documentTimeStamp;\n        bytes memory ipfsHash;\n        bytes memory docTags;\n        (docHash,userName,documentTimeStamp,ipfsHash,docTags) = proveDatabase.getFile(msg.sender,_docHash);\n        return(docHash,userName,documentTimeStamp,ipfsHash,docTags);\n    }\n\n    /** @dev Returns every document owned by the sender. \n        * @return documentHashList list of document hashes.\n        */\n    function retrieveAllFiles() public view returns(bytes32[] memory){\n        ProveDatabase proveDatabase = ProveDatabase(storageDatabase);\n        bytes32[] memory documentHashList = proveDatabase.retrieveAllFiles(msg.sender);\n        return documentHashList;\n    }\n\n    /** @dev Checks the balance of the contract account. \n        * @return balance contract ether amount.\n        */\n    function checkBalance() public view returns(uint){\n        return address(this).balance;\n    }\n\n    /** @dev Allows the owner to withdraw ether from the contract account.  \n        * @return status true/false.\n        */\n    function withdrawFunds() public onlyOwner returns(bool){\n        uint balance = address(this).balance;\n        msg.sender.transfer(balance);\n        return true;\n    }\n\n    // Fallback function to prevent calls with unknown data and functions. \n    // It is invoked when the call made to the contract does not match any function signatures.\n    function () external payable {\n        require(msg.data.length == 0,\"Length of the message is not zero.\");\n        emit LogFallback(msg.sender,msg.value);\n    }\n\n}\n",
  "sourcePath": "/home/demmojo/Projects/prove-it/contracts/Prove.sol",
  "compiler": {
    "name": "solc",
    "version": "0.4.24+commit.e67f0147.Emscripten.clang"
  },
  "schemaVersion": "2.0.1",
  "updatedAt": "2019-01-02T16:22:21.654Z"
}