{
  "contractName": "ProveDatabase",
  "abi": [
    {
      "constant": false,
      "inputs": [],
      "name": "kill",
      "outputs": [],
      "payable": false,
      "stateMutability": "nonpayable",
      "type": "function"
    },
    {
      "constant": true,
      "inputs": [],
      "name": "stopped",
      "outputs": [
        {
          "name": "",
          "type": "bool"
        }
      ],
      "payable": false,
      "stateMutability": "view",
      "type": "function"
    },
    {
      "constant": true,
      "inputs": [],
      "name": "owner",
      "outputs": [
        {
          "name": "",
          "type": "address"
        }
      ],
      "payable": false,
      "stateMutability": "view",
      "type": "function"
    },
    {
      "constant": true,
      "inputs": [
        {
          "name": "",
          "type": "uint256"
        }
      ],
      "name": "allowedContractsKeys",
      "outputs": [
        {
          "name": "",
          "type": "address"
        }
      ],
      "payable": false,
      "stateMutability": "view",
      "type": "function"
    },
    {
      "constant": false,
      "inputs": [
        {
          "name": "_newOwner",
          "type": "address"
        }
      ],
      "name": "changeOwner",
      "outputs": [],
      "payable": false,
      "stateMutability": "nonpayable",
      "type": "function"
    },
    {
      "payable": true,
      "stateMutability": "payable",
      "type": "fallback"
    },
    {
      "anonymous": false,
      "inputs": [
        {
          "indexed": false,
          "name": "_senderaddr",
          "type": "address"
        },
        {
          "indexed": false,
          "name": "_value",
          "type": "uint256"
        }
      ],
      "name": "LogFallback",
      "type": "event"
    },
    {
      "constant": false,
      "inputs": [
        {
          "name": "_addr",
          "type": "address"
        }
      ],
      "name": "addAllowedContractOrOwner",
      "outputs": [
        {
          "name": "",
          "type": "bool"
        }
      ],
      "payable": false,
      "stateMutability": "nonpayable",
      "type": "function"
    },
    {
      "constant": true,
      "inputs": [
        {
          "name": "_addr",
          "type": "address"
        }
      ],
      "name": "isAllowedContractOrOwner",
      "outputs": [
        {
          "name": "",
          "type": "bool"
        }
      ],
      "payable": false,
      "stateMutability": "view",
      "type": "function"
    },
    {
      "constant": false,
      "inputs": [
        {
          "name": "caller",
          "type": "address"
        },
        {
          "name": "_docHash",
          "type": "bytes32"
        },
        {
          "name": "_userName",
          "type": "bytes32"
        },
        {
          "name": "_ipfsHash",
          "type": "bytes"
        },
        {
          "name": "_docTags",
          "type": "bytes"
        }
      ],
      "name": "addFile",
      "outputs": [
        {
          "name": "",
          "type": "bool"
        }
      ],
      "payable": false,
      "stateMutability": "nonpayable",
      "type": "function"
    },
    {
      "constant": true,
      "inputs": [
        {
          "name": "caller",
          "type": "address"
        },
        {
          "name": "_docHash",
          "type": "bytes32"
        }
      ],
      "name": "getFile",
      "outputs": [
        {
          "name": "",
          "type": "bytes32"
        },
        {
          "name": "",
          "type": "bytes32"
        },
        {
          "name": "",
          "type": "uint256"
        },
        {
          "name": "",
          "type": "bytes"
        },
        {
          "name": "",
          "type": "bytes"
        }
      ],
      "payable": false,
      "stateMutability": "view",
      "type": "function"
    },
    {
      "constant": true,
      "inputs": [
        {
          "name": "caller",
          "type": "address"
        }
      ],
      "name": "retrieveAllFiles",
      "outputs": [
        {
          "name": "",
          "type": "bytes32[]"
        }
      ],
      "payable": false,
      "stateMutability": "view",
      "type": "function"
    },
    {
      "constant": true,
      "inputs": [],
      "name": "checkBalance",
      "outputs": [
        {
          "name": "",
          "type": "uint256"
        }
      ],
      "payable": false,
      "stateMutability": "view",
      "type": "function"
    },
    {
      "constant": false,
      "inputs": [],
      "name": "withdrawFunds",
      "outputs": [
        {
          "name": "",
          "type": "bool"
        }
      ],
      "payable": false,
      "stateMutability": "nonpayable",
      "type": "function"
    }
  ],
  "bytecode": "0x60806040526000600660006101000a81548160ff021916908315150217905550336000806101000a81548173ffffffffffffffffffffffffffffffffffffffff021916908373ffffffffffffffffffffffffffffffffffffffff16021790555061153a8061006e6000396000f3006080604052600436106100ba576000357c0100000000000000000000000000000000000000000000000000000000900463ffffffff168063028993ba146101a257806305950b53146101fd5780632197dc2e1461035857806324600fc31461045b57806341c0e1b51461048a57806375f12b21146104a15780638da5cb5b146104d0578063a111c91114610527578063a6f9dae114610594578063c71daccb146105d7578063d8b4cc7014610602578063f3e31a101461065d575b600080369050141515610135576040517f08c379a000000000000000000000000000000000000000000000000000000000815260040180806020018281038252601a8152602001807f4d657373616765204c656e677468206973206e6f74207a65726f00000000000081525060200191505060405180910390fd5b7fc04e16d4878a87a7d627a5fb8c387ac4a2169e45f86d1935cc739c196c8a57153334604051808373ffffffffffffffffffffffffffffffffffffffff1673ffffffffffffffffffffffffffffffffffffffff1681526020018281526020019250505060405180910390a1005b3480156101ae57600080fd5b506101e3600480360381019080803573ffffffffffffffffffffffffffffffffffffffff1690602001909291905050506106f5565b604051808215151515815260200191505060405180910390f35b34801561020957600080fd5b5061024c600480360381019080803573ffffffffffffffffffffffffffffffffffffffff169060200190929190803560001916906020019092919050505061074b565b60405180866000191660001916815260200185600019166000191681526020018481526020018060200180602001838103835285818151815260200191508051906020019080838360005b838110156102b2578082015181840152602081019050610297565b50505050905090810190601f1680156102df5780820380516001836020036101000a031916815260200191505b50838103825284818151815260200191508051906020019080838360005b838110156103185780820151818401526020810190506102fd565b50505050905090810190601f1680156103455780820380516001836020036101000a031916815260200191505b5097505050505050505060405180910390f35b34801561036457600080fd5b50610441600480360381019080803573ffffffffffffffffffffffffffffffffffffffff16906020019092919080356000191690602001909291908035600019169060200190929190803590602001908201803590602001908080601f0160208091040260200160405190810160405280939291908181526020018383808284378201915050505050509192919290803590602001908201803590602001908080601f0160208091040260200160405190810160405280939291908181526020018383808284378201915050505050509192919290505050610995565b604051808215151515815260200191505060405180910390f35b34801561046757600080fd5b50610470610c00565b604051808215151515815260200191505060405180910390f35b34801561049657600080fd5b5061049f610d56565b005b3480156104ad57600080fd5b506104b6610f64565b604051808215151515815260200191505060405180910390f35b3480156104dc57600080fd5b506104e5610f77565b604051808273ffffffffffffffffffffffffffffffffffffffff1673ffffffffffffffffffffffffffffffffffffffff16815260200191505060405180910390f35b34801561053357600080fd5b5061055260048036038101908080359060200190929190505050610f9c565b604051808273ffffffffffffffffffffffffffffffffffffffff1673ffffffffffffffffffffffffffffffffffffffff16815260200191505060405180910390f35b3480156105a057600080fd5b506105d5600480360381019080803573ffffffffffffffffffffffffffffffffffffffff169060200190929190505050610fda565b005b3480156105e357600080fd5b506105ec611196565b6040518082815260200191505060405180910390f35b34801561060e57600080fd5b50610643600480360381019080803573ffffffffffffffffffffffffffffffffffffffff1690602001909291905050506111b5565b604051808215151515815260200191505060405180910390f35b34801561066957600080fd5b5061069e600480360381019080803573ffffffffffffffffffffffffffffffffffffffff1690602001909291905050506113cb565b6040518080602001828103825283818151815260200191508051906020019060200280838360005b838110156106e15780820151818401526020810190506106c6565b505050509050019250505060405180910390f35b6000600260008373ffffffffffffffffffffffffffffffffffffffff1673ffffffffffffffffffffffffffffffffffffffff16815260200190815260200160002060009054906101000a900460ff169050919050565b60008060006060806000806001028760001916141515156107d4576040517f08c379a00000000000000000000000000000000000000000000000000000000081526004018080602001828103825260168152602001807f46696c652048617368206973206d616e6461746f72790000000000000000000081525060200191505060405180910390fd5b600360008973ffffffffffffffffffffffffffffffffffffffff1673ffffffffffffffffffffffffffffffffffffffff1681526020019081526020016000206002016000886000191660001916815260200190815260200160002090508060000154816001015482600201548360030184600401818054600181600116156101000203166002900480601f0160208091040260200160405190810160405280929190818152602001828054600181600116156101000203166002900480156108dd5780601f106108b2576101008083540402835291602001916108dd565b820191906000526020600020905b8154815290600101906020018083116108c057829003601f168201915b50505050509150808054600181600116156101000203166002900480601f0160208091040260200160405190810160405280929190818152602001828054600181600116156101000203166002900480156109795780601f1061094e57610100808354040283529160200191610979565b820191906000526020600020905b81548152906001019060200180831161095c57829003601f168201915b5050505050905095509550955095509550509295509295909350565b600080600102600360008873ffffffffffffffffffffffffffffffffffffffff1673ffffffffffffffffffffffffffffffffffffffff1681526020019081526020016000206002016000876000191660001916815260200190815260200160002060000154600019161415610bf25733600360008873ffffffffffffffffffffffffffffffffffffffff1673ffffffffffffffffffffffffffffffffffffffff16815260200190815260200160002060000160006101000a81548173ffffffffffffffffffffffffffffffffffffffff021916908373ffffffffffffffffffffffffffffffffffffffff160217905550600360008773ffffffffffffffffffffffffffffffffffffffff1673ffffffffffffffffffffffffffffffffffffffff16815260200190815260200160002060010185908060018154018082558091505090600182039060005260206000200160009091929091909150906000191690555060a060405190810160405280866000191681526020018560001916815260200142815260200184815260200183815250600360008873ffffffffffffffffffffffffffffffffffffffff1673ffffffffffffffffffffffffffffffffffffffff168152602001908152602001600020600201600087600019166000191681526020019081526020016000206000820151816000019060001916905560208201518160010190600019169055604082015181600201556060820151816003019080519060200190610bc8929190611469565b506080820151816004019080519060200190610be5929190611469565b5090505060019050610bf7565b600090505b95945050505050565b6000806000809054906101000a900473ffffffffffffffffffffffffffffffffffffffff1673ffffffffffffffffffffffffffffffffffffffff163373ffffffffffffffffffffffffffffffffffffffff16141515610ced576040517f08c379a00000000000000000000000000000000000000000000000000000000081526004018080602001828103825260258152602001807f596f7520617265206e6f7420746865206f776e6572206f662074686520636f6e81526020017f747261637400000000000000000000000000000000000000000000000000000081525060400191505060405180910390fd5b3073ffffffffffffffffffffffffffffffffffffffff163190503373ffffffffffffffffffffffffffffffffffffffff166108fc829081150290604051600060405180830381858888f19350505050158015610d4d573d6000803e3d6000fd5b50600191505090565b6000809054906101000a900473ffffffffffffffffffffffffffffffffffffffff1673ffffffffffffffffffffffffffffffffffffffff163373ffffffffffffffffffffffffffffffffffffffff16141515610e40576040517f08c379a00000000000000000000000000000000000000000000000000000000081526004018080602001828103825260258152602001807f596f7520617265206e6f7420746865206f776e6572206f662074686520636f6e81526020017f747261637400000000000000000000000000000000000000000000000000000081525060400191505060405180910390fd5b6000809054906101000a900473ffffffffffffffffffffffffffffffffffffffff1673ffffffffffffffffffffffffffffffffffffffff163373ffffffffffffffffffffffffffffffffffffffff16141515610f2a576040517f08c379a00000000000000000000000000000000000000000000000000000000081526004018080602001828103825260258152602001807f596f7520617265206e6f7420746865206f776e6572206f662074686520636f6e81526020017f747261637400000000000000000000000000000000000000000000000000000081525060400191505060405180910390fd5b6000809054906101000a900473ffffffffffffffffffffffffffffffffffffffff1673ffffffffffffffffffffffffffffffffffffffff16ff5b600660009054906101000a900460ff1681565b6000809054906101000a900473ffffffffffffffffffffffffffffffffffffffff1681565b600181815481101515610fab57fe5b906000526020600020016000915054906101000a900473ffffffffffffffffffffffffffffffffffffffff1681565b6000809054906101000a900473ffffffffffffffffffffffffffffffffffffffff1673ffffffffffffffffffffffffffffffffffffffff163373ffffffffffffffffffffffffffffffffffffffff161415156110c4576040517f08c379a00000000000000000000000000000000000000000000000000000000081526004018080602001828103825260258152602001807f596f7520617265206e6f7420746865206f776e6572206f662074686520636f6e81526020017f747261637400000000000000000000000000000000000000000000000000000081525060400191505060405180910390fd5b60008173ffffffffffffffffffffffffffffffffffffffff1614151515611153576040517f08c379a00000000000000000000000000000000000000000000000000000000081526004018080602001828103825260158152602001807f416464726573732063616e6e6f7420626520307830000000000000000000000081525060200191505060405180910390fd5b806000806101000a81548173ffffffffffffffffffffffffffffffffffffffff021916908373ffffffffffffffffffffffffffffffffffffffff16021790555050565b60003073ffffffffffffffffffffffffffffffffffffffff1631905090565b60008060009054906101000a900473ffffffffffffffffffffffffffffffffffffffff1673ffffffffffffffffffffffffffffffffffffffff163373ffffffffffffffffffffffffffffffffffffffff161415156112a1576040517f08c379a00000000000000000000000000000000000000000000000000000000081526004018080602001828103825260258152602001807f596f7520617265206e6f7420746865206f776e6572206f662074686520636f6e81526020017f747261637400000000000000000000000000000000000000000000000000000081525060400191505060405180910390fd5b60001515600260008473ffffffffffffffffffffffffffffffffffffffff1673ffffffffffffffffffffffffffffffffffffffff16815260200190815260200160002060009054906101000a900460ff16151514156113c1576001600260008473ffffffffffffffffffffffffffffffffffffffff1673ffffffffffffffffffffffffffffffffffffffff16815260200190815260200160002060006101000a81548160ff02191690831515021790555060018290806001815401808255809150509060018203906000526020600020016000909192909190916101000a81548173ffffffffffffffffffffffffffffffffffffffff021916908373ffffffffffffffffffffffffffffffffffffffff16021790555050600190506113c6565b600090505b919050565b6060600360008373ffffffffffffffffffffffffffffffffffffffff1673ffffffffffffffffffffffffffffffffffffffff16815260200190815260200160002060010180548060200260200160405190810160405280929190818152602001828054801561145d57602002820191906000526020600020905b81546000191681526020019060010190808311611445575b50505050509050919050565b828054600181600116156101000203166002900490600052602060002090601f016020900481019282601f106114aa57805160ff19168380011785556114d8565b828001600101855582156114d8579182015b828111156114d75782518255916020019190600101906114bc565b5b5090506114e591906114e9565b5090565b61150b91905b808211156115075760008160009055506001016114ef565b5090565b905600a165627a7a723058204fad239ddb803890c7e8bb41ae5fe060b7136c4f1d0f181a73cbf622463989260029",
  "source": "pragma solidity ^0.4.24;\n\nimport \"./Mortal.sol\";\n\n/** @title ProveDatabase contract manages the data for this entire application.\n    The purpose of this ProveDatabase contract is the storage and retrieval of data \n    The data is isolated from the logic in order to implement upgradable design pattern\n    */\ncontract ProveDatabase  is Mortal {\n    \n    //File idenfiers is a structure which sotres the documented related information\n    struct File {\n        bytes32 docHash;\n        bytes32 userName;\n        uint docTimestamp;\n        bytes ipfsHash;\n        bytes docTags;\n    }\n\n    //To keep track of all the files owned by a user\n    struct User {\n        address addr;\n        bytes32[] documentList;\n        mapping(bytes32 => File) documentDetails;\n    }\n\n    //Maintain user usage count to implement throtlling\n    struct UserUsageCount {\n        uint uploadTime;\n        uint count;\n    }\n    \n    // List of state variables\n    address[] public allowedContractsKeys;\n    mapping(address => bool) allowedContracts;\n    mapping( address => User )  users;\n    mapping( address => bool )  admins;\n    mapping( bytes32 => File )  files;\n    bool public stopped = false;\n    \n    //Events for logging\n    event LogFallback(address _senderaddr,uint _value);\n  \n    // modified to restric access to allowed users and contracts\n    modifier onlyAllowedContractOrOwner {\n        require (allowedContracts[msg.sender] != true && msg.sender != owner,\"Should be a owner\");\n        _;\n    }\n\n    /** @dev addAllowedContractOrOwner. function to add allowed contracts or owners to the list.\n        * The list of users have the previliges to execute methods that make changes to the state of this ProveDatabase.\n        * @param _addr address of contract or user.\n        * @return status true/false.\n        */\n    function addAllowedContractOrOwner(address _addr)\n    public\n    onlyOwner \n    returns(bool) {\n        if( allowedContracts[_addr] == false ) {\n            allowedContracts[_addr] = true;\n            allowedContractsKeys.push(_addr);\n            return true;\n        }\n        return false;\n    }\n\n    /** @dev isAllowedContractOrOwner. This function determines of an address is allowed to  make change to the state of ProveDatabase contract.\n        * The list of users have the previliges to execute methods that make changes to the state of this ProveDatabase.\n        * @param _addr address of contract or user.\n        * @return status true/false.\n        */\n    function isAllowedContractOrOwner(address _addr)\n    public\n    view \n    returns(bool) {\n        return allowedContracts[_addr];\n    }\n    \n    /** @dev addFile. This function adds a document to the data store. \n        * files are maintained for each user. An array inside user struct contains all the document the user uploaded so far.\n        * document struct contains the document details\n        * @param caller documentId.\n        * @param _docHash documentId.\n        * @param _userName name of the owner.\n        * @param _ipfsHash hash of the document returned by IPFS.\n        * @param _docTags additional tags.\n        * @return status true/false.\n        */\n    function addFile(address caller, bytes32 _docHash, bytes32 _userName, bytes memory _ipfsHash, bytes memory _docTags) public returns(bool) {\n        if(users[caller].documentDetails[_docHash].docHash == 0x0 ){\n            users[caller].addr = msg.sender;\n            users[caller].documentList.push(_docHash);\n            users[caller].documentDetails[_docHash] = File(_docHash, _userName,block.timestamp,_ipfsHash,_docTags);\n            return true;\n        }\n        return false;\n    }\n    \n    /** @dev Returns details of a single document. address and  docHash are used to  look up a particular document.\n        * @param caller user address.\n        * @param _docHash unique documentId.\n        * @return docHash unique documentId.\n        * @return userName onwer name.\n        * @return docTimestamp document registered timestamp.\n        * @return ipfsHash hash of the document returned by IPFS.\n        * @return docTags additional tags describing the document uploaded.\n        */\n    function getFile(address caller,bytes32 _docHash) \n    public \n    view \n    returns(bytes32, bytes32, uint, bytes memory, bytes memory){\n        require(_docHash != 0x0, \"File Hash is mandatory\");\n        File storage document = users[caller].documentDetails[_docHash];\n        return(document.docHash,document.userName,document.docTimestamp,document.ipfsHash,document.docTags);\n    }\n    \n    /** @dev retrieveAllFiles. Returns all the files that belong to the sender. \n        * @return documentList list of document addresses.\n        */\n    function retrieveAllFiles(address caller) \n    public \n    view \n    returns(bytes32[] memory){\n        return users[caller].documentList;\n    }\n    \n    /** @dev checkBalance. Checks the ether balance of the contract account. \n        * @return balance contract ether balance.\n        */\n    function checkBalance() public view returns(uint){\n        return address(this).balance;\n    }\n    \n    /** @dev withdrawFunds. Allows the owner to withdraw ether balance the contract account. \n        * pull over push for external calls.\n        * @return status true/false.\n        */\n    function withdrawFunds() public onlyOwner returns(bool){\n        uint balance = address(this).balance;\n        msg.sender.transfer(balance);\n        return true;\n    }\n\n    // Fallback method to prevet calls to with data and unknown functions to the contract.\n    // This function is invoked when a call is made to the contrat with no matching function signature. \n    function () external payable {\n        require(msg.data.length == 0,\"Message Length is not zero\");\n        emit LogFallback(msg.sender,msg.value);\n    }\n\n}   \n",
  "sourcePath": "/home/demmojo/Projects/prove-it/contracts/ProveDatabase.sol",
  "compiler": {
    "name": "solc",
    "version": "0.4.24+commit.e67f0147.Emscripten.clang"
  },
  "schemaVersion": "2.0.1",
  "updatedAt": "2019-01-02T16:22:21.657Z"
}